:020000040000fa
:080000000002040000000000f2
:020000040000fa
:040008006004000090
:020000040000fa
:04000c00600400008c
:020000040000fa
:040010006004000088
:020000040000fa
:040014006004000084
:020000040000fa
:040018006004000080
:020000040000fa
:04001c00600400007c
:020000040000fa
:040020006004000078
:020000040000fa
:040024006004000074
:020000040000fa
:040028006004000070
:020000040000fa
:04002c00600400006c
:020000040000fa
:040030006004000068
:020000040000fa
:04003400c8030000fd
:020000040000fa
:040038006004000060
:020000040000fa
:04003c00600400005c
:020000040000fa
:040040006004000058
:020000040000fa
:04004400da030000db
:020000040000fa
:040048006004000050
:020000040000fa
:04004c00600400004c
:020000040000fa
:040050006004000048
:020000040000fa
:040054006004000044
:020000040000fa
:040058006004000040
:020000040000fa
:04005c00600400003c
:020000040000fa
:040060006004000038
:020000040000fa
:040064006004000034
:020000040000fa
:040068006004000030
:020000040000fa
:04006c00ec020000a2
:020000040000fa
:040070006004000028
:020000040000fa
:04007400c8020000be
:020000040000fa
:040078006004000020
:020000040000fa
:04007c00600400001c
:020000040000fa
:040080006004000018
:020000040000fa
:040084006004000014
:020000040000fa
:040088006004000010
:020000040000fa
:04008c00600400000c
:020000040000fa
:040090006004000008
:020000040000fa
:040094006004000004
:020000040000fa
:040098006004000000
:020000040000fa
:04009c0060040000fc
:020000040000fa
:0400a00060040000f8
:020000040000fa
:0400a40060040000f4
:020000040000fa
:0400a80060040000f0
:020000040000fa
:0400ac0060040000ec
:020000040000fa
:0400b00060040000e8
:020000040000fa
:0400b40060040000e4
:020000040000fa
:0400b80060040000e0
:020000040000fa
:0400bc0060040000dc
:020000040000fa
:0400c00060040000d8
:020000040000fa
:0400c40060040000d4
:020000040000fa
:0400c80060040000d0
:020000040000fa
:0400cc0060040000cc
:020000040000fa
:0400d00060040000c8
:020000040000fa
:0400d40060040000c4
:020000040000fa
:0400d80060040000c0
:020000040000fa
:0400dc0060040000bc
:020000040000fa
:0400e00060040000b8
:020000040000fa
:0400e40060040000b4
:020000040000fa
:0400e80060040000b0
:020000040000fa
:0400ec0060040000ac
:020000040000fa
:0400f00060040000a8
:020000040000fa
:0400f40060040000a4
:020000040000fa
:0400f80060040000a0
:020000040000fa
:0400fc00600400009c
:020000040000fa
:040100006004000097
:020000040000fa
:040104006004000093
:020000040000fa
:04010800600400008f
:020000040000fa
:04010c00600400008b
:020000040000fa
:040110006004000087
:020000040000fa
:040114006004000083
:020000040000fa
:04011800600400007f
:020000040000fa
:04011c00600400007b
:020000040000fa
:040120006004000077
:020000040000fa
:040124006004000073
:020000040000fa
:04012800600400006f
:020000040000fa
:04012c00600400006b
:020000040000fa
:040130006004000067
:020000040000fa
:040134006004000063
:020000040000fa
:04013800600400005f
:020000040000fa
:04013c00600400005b
:020000040000fa
:040140006004000057
:020000040000fa
:040144006004000053
:020000040000fa
:04020800600400008e
:020000040000fa
:04020c00600400008a
:020000040000fa
:040210006004000086
:020000040000fa
:040214006004000082
:020000040000fa
:04021800600400007e
:020000040000fa
:04021c00600400007a
:020000040000fa
:040220006004000076
:020000040000fa
:040224006004000072
:020000040000fa
:04022800600400006e
:020000040000fa
:04022c00600400006a
:020000040000fa
:040230006004000066
:020000040000fa
:04023400c8030000fb
:020000040000fa
:04023800600400005e
:020000040000fa
:04023c00600400005a
:020000040000fa
:040240006004000056
:020000040000fa
:04024400da030000d9
:020000040000fa
:04024800600400004e
:020000040000fa
:04024c00600400004a
:020000040000fa
:040250006004000046
:020000040000fa
:040254006004000042
:020000040000fa
:04025800600400003e
:020000040000fa
:04025c00600400003a
:020000040000fa
:040260006004000036
:020000040000fa
:040264006004000032
:020000040000fa
:04026800600400002e
:020000040000fa
:04026c00ec020000a0
:020000040000fa
:040270006004000026
:020000040000fa
:04027400c8020000bc
:020000040000fa
:04027800600400001e
:020000040000fa
:04027c00600400001a
:020000040000fa
:040280006004000016
:020000040000fa
:040284006004000012
:020000040000fa
:04028800600400000e
:020000040000fa
:04028c00600400000a
:020000040000fa
:040290006004000006
:020000040000fa
:040294006004000002
:020000040000fa
:0402980060040000fe
:020000040000fa
:04029c0060040000fa
:020000040000fa
:0402a00060040000f6
:020000040000fa
:0402a40060040000f2
:020000040000fa
:0402a80060040000ee
:020000040000fa
:0402ac0060040000ea
:020000040000fa
:0402b00060040000e6
:020000040000fa
:0402b40060040000e2
:020000040000fa
:0402b80060040000de
:020000040000fa
:0402bc0060040000da
:020000040000fa
:0402c00060040000d6
:020000040000fa
:0402c40060040000d2
:020000040000fa
:0402c80060040000ce
:020000040000fa
:0402cc0060040000ca
:020000040000fa
:0402d00060040000c6
:020000040000fa
:0402d40060040000c2
:020000040000fa
:0402d80060040000be
:020000040000fa
:0402dc0060040000ba
:020000040000fa
:0402e00060040000b6
:020000040000fa
:0402e40060040000b2
:020000040000fa
:0402e80060040000ae
:020000040000fa
:0402ec0060040000aa
:020000040000fa
:0402f00060040000a6
:020000040000fa
:0402f40060040000a2
:020000040000fa
:0402f800600400009e
:020000040000fa
:0402fc00600400009a
:020000040000fa
:040300006004000095
:020000040000fa
:040304006004000091
:020000040000fa
:04030800600400008d
:020000040000fa
:04030c006004000089
:020000040000fa
:040310006004000085
:020000040000fa
:040314006004000081
:020000040000fa
:04031800600400007d
:020000040000fa
:04031c006004000079
:020000040000fa
:040320006004000075
:020000040000fa
:040324006004000071
:020000040000fa
:04032800600400006d
:020000040000fa
:04032c006004000069
:020000040000fa
:040330006004000065
:020000040000fa
:040334006004000061
:020000040000fa
:04033800600400005d
:020000040000fa
:04033c006004000059
:020000040000fa
:040340006004000055
:020000040000fa
:040344006004000051
:020000040000fa
:10040000af8520000e7f24000e0188000000000050
:10041000000020000000e000020032000001200087
:100420002002880014000700270107000000e000f8
:1004300003003a00a005210001002000020037005f
:100440000000200001002000810f70000100320038
:1004500014000700000020000000e000020032004d
:100460000000020000000000980f020000000000e1
:100470000040da000000fe004440a900000920000e
:100480000000e0000300320000002000a00188000e
:100490004440a800000006008a1f78008b1f7800e7
:1004a0000000060091018800800478000000eb0045
:1004b0001a003700e284440032a0b4009905ba0063
:1004c000e284440032a0b4009906ba00e2844400f9
:1004d00032a0b4000006eb00476fde00fd07b2005b
:1004e000636ce10003003a00ebff07000000eb0043
:1004f0000a003700606ce10004003a00005deb0088
:100500008b05e900fdff3e00040037006168e10053
:10051000010032000086eb000b00070019c7ba008b
:100520001905ba000e04e00003003a000a00e000da
:10053000e0ff3a0000000600fe07b2009e018800be
:100540008a047800f5ff3700395dba008b05e900b1
:100550000c003200295dba008b05e900080032006a
:100560000c00e00003003a00e284440032a0b40032
:10057000f5ff370019ddba008b05e900faff3a00f4
:100580008904e800e184440032a0b40000000600c1
:10059000809fbe000000fa00a11680000008200025
:1005a000008060000000e00007003a00c0408000ca
:1005b0000000e800c0408800c0408000e60f500006
:1005c00001003a001828ef008660a9000080fa00b8
:1005d0004f00be0000400600809fbe00821f7800d2
:1005e0000000fa0000000000000000000000000011
:1005f00000000000d0408000e50f500031003200c4
:10060000e50f50000c003c00e20f500019003200d2
:10061000e20f500003003c00e10f50000f003200d9
:1006200054003700e30f50001d003200e40f50006b
:10063000200032004f003700e70f50002c0032003e
:10064000e70f500026003500e80f50003f00320051
:10065000e90f500041003200460037000ec8bf00cd
:100660000080fb001010880020002000d04088008f
:10067000400037000fc8bf000080fb00101088004a
:1006800030002000d0408800904080000000e00052
:1006900037003a0040002000d04088003500370085
:1006a000000120001010880080002000d040880049
:1006b000300037000622a80050002000d0408800fb
:1006c0002c0037000ec8bf000004a0000080fb0013
:1006d0001010880060002000d040880025003700fe
:1006e00070002000d04088000662a800210037007a
:1006f000b24080000010800080407800c08420005c
:100700000200400001487800b04080000000e8008e
:10071000b0408800b0408000ee0f500006003a0064
:1007200080002000d040880006a2a8000682a80011
:100730001628ef000f00370060002000d04088002e
:1007400006a2a9000682a8000a0037000642a800f7
:1007500090002000d04088000600370010002000e4
:10076000a040880010002000d04088000100370021
:10077000000000008620a900c442a800c462a800ae
:100780000080fa004f0178004f00be0000400600d4
:10079000801f78000000fa00004080000000e800a0
:1007a000004088008460a9000080fa004f007800b3
:1007b000004006003600f800809fbe00829fbe0009
:1007c000849fbe00869fbe000000fa00504080005b
:1007d000e10f50000e003200e10f5000050039001b
:1007e000e20f500019003200e30f50001e003200eb
:1007f0002b00370000c8b3007c0407005040800085
:100800000000e800504088000c28ef00240037006a
:1008100061408000c081200001004000104078004d
:100820008d04070060408000ef0f500003003a0085
:10083000504080000000e800504088006040800088
:100840000000e800604088001500370000ccb300cd
:1008500066040700504080000000e8005040880017
:100860000c28ef000e003700604080007000400050
:10087000c18120000080400010407800760407000d
:1008800060408000ef0f500001003a000a28ef009e
:10089000604080000000e800604088000000000028
:1008a00084e0a9000080fa004f03be004f02be00a2
:1008b0004f01be004f00be003600f90000400600a8
:0c08c0000040da000000fe00000005000f
:020000040000fa
:1008cc0020470000726100006475000020410000a8
:1008dc006d61000069650000726100006b6f0000c3
:1008ec00204c0000616e0000612c000020730000a1
:1008fc0033200000736100006b6100007475000010
:10090c0047690000726f0000736b00006f7000008d
:10091c00696f0000202000002058000020200000fb
:10092c0047690000726f0000736b00006f7000006d
:10093c00696f0000202000002059000020200000da
:10094c0047690000726f0000736b00006f7000004d
:10095c00696f000020200000205a000020200000b9
:10096c00417a0000656c0000657200006f6d00003c
:10097c00657400002020000020580000202000009a
:10098c00417a0000656c0000657200006f6d00001c
:10099c006574000020200000205900002020000079
:1009ac00417a0000656c0000657200006f6d0000fc
:1009bc006574000020200000205a00002020000058
:1009cc00202000002020000020200000202000001b
:1009dc00202000002020000020200000202000000b
:020000040000fa
:1009ec000000fa00f0052000201088000000210013
:1009fc00301088000022ef000222ef0007e2a8006e
:100a0c000080fa00000006000000fa009620a80002
:100a1c008620a9000080fa00000006000200fa00ff
:100a2c00004f78000e00e800014878001e41780065
:100a3c00e1802000824878000e00e8001041780028
:100a4c00f1802000824878001228ef001428ef0073
:100a5c000602a8000080fa00000006000400fa005c
:100a6c00004f78000e00e800014878000e80e80086
:100a7c00024878001e417800e1802000824878000e
:100a8c000e00e80010417800f180200082487800c8
:100a9c000e80e80010417800018120008248780027
:100aac0010002000904088001428ef000602a800d7
:100abc000080fa00000006000200fa000602a800fe
:100acc000000eb00000f7800010037001e0fe8005b
:100adc0030108000610060000000e0000400320073
:100aec00703e20009e007800808f5000f7ff36008b
:100afc00703e20009e007800808f5000020036006f
:100b0c0010002000010037000000eb000080fa000c
:100b1c00000006000200fa000622a8000000eb000c
:100b2c00000f7800010037001e0fe8003010800025
:100b3c00620060000000e00004003200703e200003
:100b4c009e007800808f5000f7ff3600703e20002a
:100b5c009e007800808f500002003600200020009c
:100b6c00010037000000eb000080fa0000000600d6
:100b7c000200fa000642a8000000eb00000f78000b
:100b8c00010037001e0fe800301080006400600088
:100b9c000000e00004003200703e20009e0078004f
:100bac00808f5000f7ff3600703e20009e007800ca
:100bbc00808f50000200360030002000010037000a
:100bcc000000eb000080fa00000006000200fa00b2
:100bdc000000eb00000f7800010037001e0fe8004a
:100bec004110800000002400008060000000e00044
:100bfc0004003200703e20009e007800808f500070
:100c0c00f6ff3600703e20009e007800808f50006a
:100c1c000200360050002000010037000000eb00fd
:100c2c000080fa00000006000400fa008e80e80044
:100c3c00804878000000eb00000f780001003700be
:100c4c001e0fe800411080000000240000806000ae
:100c5c000000e00004003200703e20009e0078008e
:100c6c00808f5000f6ff3600703e20009e0078000a
:100c7c00808f500002003600400020001700370023
:100c8c000e80e800104078000080fb0010108800f7
:100c9c000000eb00000f7800010037001e0fe80089
:100cac0040108000610060000000e0000400320091
:100cbc00703e20009e007800808f5000f7ff3600b9
:100ccc00703e20009e007800808f5000020036009d
:100cdc0040002000010037000000eb000080fa000b
:100cec00000006000000fa00401080000080ea00be
:100cfc004f00de000080fa00000006000200fa003f
:100d0c0006a2a8000682a8000000eb00000f7800e5
:100d1c00010037001e0fe8003010800070006000ea
:100d2c000000e00004003200703e20009e007800bd
:100d3c00808f5000f7ff360006a2a900703e2000fd
:100d4c009e007800808f500002003600700020005a
:100d5c00010037000000eb000080fa0000000600e4
:100d6c000200fa0006a2a9000682a8000000eb000f
:100d7c00000f7800010037001e0fe80030108000d3
:100d8c00700060000000e00004003200703e2000a3
:100d9c009e007800808f5000f7ff3600703e2000d8
:100dac009e007800808f50000200360090002000da
:100dbc00010037000000eb000080fa000000060084
:100dcc000200fa000662a8000000eb00000f780099
:100ddc00010037001e0fe800401080006200600028
:100dec0000f0a7000000ea000000e9004f00de0060
:100dfc008040780010c0b300723e20009e01780045
:100e0c00828f5100010034000040eb0000c06000f4
:100e1c000004e000efff3a00001080000080fa00b0
:100e2c00000006000600fa000e81e80000097800b8
:100e3c0064004700014878000000eb00000f7800c8
:100e4c0017003700deff0700004078008e80e800b6
:100e5c0091007800804878000e80e800100078003f
:100e6c008000e8000e80e800010878004110800046
:100e7c0000402000008060000000e0000300320011
:100e8c0080002000000f78000942a9006400470090
:100e9c00104078000004e00001003200b0ff0700b1
:100eac0064004700104078000080fb000000ea005e
:100ebc004f00de0000407800e400470091407800cd
:100ecc000141e900e4004700824878000004e0009a
:100edc00dcff3a001e0078000080fa0000000600db
:100eec000400fa008e80e800800878000040eb00d7
:100efc00004f7800160037000e80e80010007800d4
:100f0c001040780048ff07000000e00002003200ab
:100f1c00d0ff2f00120037002cff0700411080007b
:100f2c0000002800008060000000e0000200320099
:100f3c00e0ff2f000a0037000e80e8001000780058
:100f4c008000e8000e80e800010878001e4fe800e1
:100f5c001e407800ff4f5000e7ff36000000eb000a
:100f6c000080fa00000006000200fa00004f780032
:100f7c0016ff0700d0fe0700411080000040200043
:100f8c00008060000000e000020032000080eb00f6
:100f9c002b0037001e40780023ff07000000e00004
:100fac0002003200d0ff2f002500370007ff07009a
:100fbc004110800000402000008060000000e00034
:100fcc00120032000080eb001d003700d1fe07003c
:100fdc004110800000402000008060000000e00014
:100fec00020032000080eb00150037001e40780034
:100ffc000dff07000000e00002003200d0ff2f00c0
:10100c000f003700f1fe0700010037000000000060
:10101c0034ff07000000e000ecff3a00d4fe0700ac
:10102c004110800000402000008060000000e000c3
:10103c00020032000080eb00010037000000eb00e2
:10104c000080fa00000006000800fa000e82e8009a
:10105c00004a7800630047000148780064004700ac
:10106c000208780066004700034878000000eb0097
:10107c00000f7800d5fe07000000e00002003200ef
:10108c0050002000000f78008bfe07000000e000ed
:10109c000200320010002000000f78000e80e800e3
:1010ac0010407800e0fe07000000e0000200320073
:1010bc0040002000000f7800c4fe07000000e00094
:1010cc000200320050002000000f7800630047003f
:1010dc0010407800d4fe07000000e000020032004f
:1010ec0040002000000f7800b8fe07000000e00070
:1010fc000200320050002000000f780085fe07002f
:10110c000000e0000200320020002000000f7800f8
:10111c000e80e800104078000004a000c2fe07001a
:10112c000000e0000200320040002000000f7800b8
:10113c00a6fe07000000e000020032005000200074
:10114c00000f78006600470090407800640047006c
:10115c001000780033ff07000000e00002003200ae
:10116c0090002000000f7800e4fe07000000e00073
:10117c000200320070002000000f78007cfe070097
:10118c000000e0000200320030002000000f780068
:10119c001e0078000080fa00000006000800fa002b
:1011ac00e401470080497800650047000148780059
:1011bc0066004700024878000000eb00000f780042
:1011cc0082fe07000000e000020032005000200008
:1011dc00000f780038fe07000000e000020032002b
:1011ec0010002000000f78006400470010407800c9
:1011fc008dfe07000000e0000200320040002000dd
:10120c00000f780071fe07000000e00002003200c1
:10121c0050002000000f7800401080004f00de00ce
:10122c00004078008080fb000e80e8000108780008
:10123c0065004700104078007bfe07000000e000ce
:10124c000200320040002000000f78005ffe070013
:10125c000000e0000200320050002000000f780077
:10126c0066004700104078006ffe07000000e000a9
:10127c000200320040002000000f780053fe0700ef
:10128c000000e0000200320050002000000f780047
:10129c0037fe07000000e0000200320030002000a2
:1012ac00000f78001e0078000080fa000000060095
:1012bc000400fa00004f78000e00e80001487800a6
:1012cc000e80e80002487800fbfd07001e40780005
:1012dc0055fe07003dfe07000e00e80010407800a8
:1012ec0051fe070039fe07000e80e8001040780020
:1012fc004dfe070035fe07001dfe07000080fa00ba
:10130c00000006000600fa00000f78000e80e800ce
:10131c000108780064004700020878006400470068
:10132c0090007800d0cc2c000008b8004308de00f8
:10133c00004078009e007800804878001e007800fd
:10134c009040780000c3b30000c070009e0078008d
:10135c00804878006400470010017800d0cc2c0045
:10136c000010b8004308de006a00b90000007800e5
:10137c0000005100004078008e80e8009100780059
:10138c00804878000e80e8001000780090407800cb
:10139c0000c3b30000c070008e80e800910078009c
:1013ac00804878000080fa00000006000e00fa0069
:1013bc00000f78000e80e8000108780064004700f8
:1013cc0002087800660047000308780068004700b0
:1013dc00040878006a004700050878006c00470094
:1013ec00060878001e007800104078000080fb0092
:1013fc00c800dd000e80e8001000780001087800bd
:10140c000e80e80010007800900078001e00e800c4
:10141c00104078000080fb00810070000e80e80016
:10142c0010007800010878001e80e8001040780059
:10143c000080fb00c800dd0064004700100078004d
:10144c0001087800640047001000780090007800d4
:10145c001e01780063004100104078000080fb0002
:10146c0081007000640047001000780001087800cb
:10147c009e00780064804000104078000080fb00e3
:10148c00c800dd00660047001000780001087800f5
:10149c006600470010007800900078001e0178006c
:1014ac0065004100104078000080fb008100700056
:1014bc006600470010007800010878009e00780054
:1014cc0068804000104078000080fb00c800dd0000
:1014dc006800470010007800010878006800470099
:1014ec0010007800900078001e0178006700410021
:1014fc00104078000080fb008100700068004700fd
:10150c0010007800010878009e0078006a80400086
:10151c00104078000080fb00c800dd006a00470026
:10152c0010007800010878006a004700100078006d
:10153c00900078001e01780069004100104078008e
:10154c000080fb00810070006a00470010007800ea
:10155c00010878009e0078006c80400010407800f4
:10156c000080fb00c800dd006c0047001000780014
:10157c00010878006c00470010007800900078009b
:10158c001e0178006b004100104078000080fb00c9
:10159c00810070006c004700100078000108780092
:1015ac000080fa00000006001600fa006a034700eb
:1015bc00000b78006c004700010878006e004700b3
:1015cc00020878007000470003087800720047009a
:1015dc000408780074004700050878007400470080
:1015ec0010007800c400de00703420000008b80041
:1015fc004308de00000f7800c08320001e0040006e
:10160c0010407800ea00470091007800804878008c
:10161c007400470010017800c410de007034200004
:10162c000008b800c308de00007122000088b90071
:10163c0000007800800051000e80e800010878005e
:10164c000e80e80010007800c300de00500c220071
:10165c000008b800c408de000e80e800010878001d
:10166c00c08320008e80e8009100780001004000cb
:10167c0010407800ec00470091007800804878001a
:10168c00740047009000780000712200000178007f
:10169c00110009008280d8008000fd0080007800d5
:1016ac00803e200000017800110009008280d800e3
:1016bc0064004700010878006400470010007800bf
:1016cc00c200de00b04721000008b8008100d10044
:1016dc006400470001087800c0832000e400470044
:1016ec00910078000100400010407800ee004700a7
:1016fc0091007800804878007400470090007800d2
:10170c000071220000017800110009008280d800cd
:10171c008000fd0080007800803e200000017800f1
:10172c00110009008280d8008000fd008000780044
:10173c004006200000017800110009008280d800ca
:10174c0066004700010878006600470090007800aa
:10175c00d0cc2c000008b800c308de00660047009f
:10176c0001087800c0832000e60047009100780053
:10177c000100400010407800f00047009100780014
:10178c0080487800740047009000780000712200b7
:10179c0000017800110009008280d8008000fd0053
:1017ac0080007800803e20000001780011000900c4
:1017bc008280d8008000fd00800078004006200068
:1017cc0000017800110009008280d8008000fd0023
:1017dc0000017800d0cc2c000010b8004308de00cb
:1017ec006a00b900000078008000510068004700d2
:1017fc0001087800c0832000e800470091007800c1
:10180c000100400010407800f20047009100780081
:10181c00804878000080fa00000006001200fa00f0
:10182c00e8024700800a78006a0047000108780047
:10183c006c004700020878006e004700030878002f
:10184c007000470004087800700047001000780012
:10185c00c300de00500c22000008b8004408de0073
:10186c00000f7800c08320001e004000104078005c
:10187c00e80047009100780080487800700047002d
:10188c0010017800c310de00500c22000008b800d4
:10189c00c408de00803e20000088b90000007800fb
:1018ac00800051000e80e800010878000e80e800ee
:1018bc0010007800c200de00b04721000008b8001c
:1018cc008100d1000e80e80001087800c083200060
:1018dc008e80e800910078000100400010407800f4
:1018ec00ea004700910078008048780070004700bb
:1018fc0090007800803e2000000178001100090063
:10190c008280d8008000fd00800078004006200016
:10191c0000017800110009008280d80064004700a3
:10192c00010878006400470090007800d0cc2c00af
:10193c000008b800c308de00640047000108780006
:10194c00c0832000e40047009100780001004000b3
:10195c0010407800ec004700910078008048780037
:10196c007000470090007800803e20000001780055
:10197c00110009008280d8008000fd0080007800f2
:10198c004006200000017800110009008280d80078
:10199c008000fd0000017800d0cc2c000010b800b5
:1019ac004308de006a00b900000078008000510096
:1019bc006600470001087800c0832000e60047005d
:1019cc00910078000100400010407800ee004700c4
:1019dc0091007800804878000080fa000000060032
:1019ec000200fa00004f7800d6a2a900cbe2a900b1
:1019fc00e116800000f02f0000806000e0168800e7
:101a0c001e00fb00e116800000807000e0168800cc
:101a1c00d682a800000000000000000000000000ba
:101a2c0000000000000000000000000000000000aa
:101a3c00000000000000000000000000d682a90099
:101a4c00d6a2a8000080fa00000006000200fa00ee
:101a5c00004f7800d6a2a900cbe2a800e1168000c6
:101a6c0000f02f0000806000e01688001e00fb00d4
:101a7c00e116800000807000e0168800d682a80075
:101a8c00000000000000000000000000000000004a
:101a9c00000000000000000000000000000000003a
:101aac000000000000000000d682a900cbe2a900d3
:101abc00d6a2a8000080fa00000006000000fa0080
:101acc00f0002000ea000700e116800000f02f0073
:101adc0000806000e0168800d6a2a900cbe2a90025
:101aec00d682a900c116800000f02f000080600093
:101afc00c0168800d2a2a900c7e2a900d282a90010
:101b0c0080c3b300b6ff070050002000d8000700c8
:101b1c0080c3b300b2ff070040062000eb000700b3
:101b2c0080c3b300aeff070080022000e70007006f
:101b3c0080c3b300aaff070080022000e300070067
:101b4c00c0c0b300a6ff070080022000df00070022
:101b5c0060c0b300a2ff070080022000db0007007a
:101b6c000080fa00000006000400fa00000f780064
:101b7c000e80e80001487800000000000000000022
:101b8c00000000000b0037001e00780010407800a9
:101b9c001e0fe800adff070080022000cb000700fd
:101bac000e80e800104078008040e9000e80e800cc
:101bbc00014878000e80e800104078000004e00036
:101bcc00f1ff3a000080fa00000006000000fa0065
:101bdc0000c8b30082ff070080022000bb00070092
:101bec000080fa00000006000000fa0000ccb300f0
:101bfc007bff070080022000b40007000080fa0081
:101c0c00000006000000fa0002c1b300b1c1b3002d
:101c1c0000cdb30061fd070002c1b300c1c1b30028
:101c2c0000cdb3005dfd07000080fa000000060047
:101c3c000400fa008e80e800800878002300200061
:101c4c000e017800b103200000cdb300fefc0700ac
:101c5c001e4078008e80e800910078008048780063
:101c6c000e80e800100078000000e8008e00e8000c
:101c7c009140780001487800230020000e01780084
:101c8c00d103200000cdb300effc07000e80e8006c
:101c9c00100078000080e8009e4078000148780031
:101cac000e80e80010007800630040008e00e80011
:101cbc009140780001487800230020000e01780044
:101ccc00f103200000cdb300dffc07000e80e8001c
:101cdc0010007800640040009e40780001487800b5
:101cec000e80e80010007800650040008e00e800cf
:101cfc009140780001487800230020000e01780004
:101d0c003104200000cdb300cffc07000e80e800aa
:101d1c0010007800660040009e4078000148780072
:101d2c000e80e80010007800670040008e00e8008c
:101d3c009140780001487800230020000e017800c3
:101d4c005104200000cdb300bffc07000e80e8005a
:101d5c0010007800680040009e4078000148780030
:101d6c000e80e80010007800690040008e00e8004a
:101d7c009140780001487800230020000e01780083
:101d8c007104200000cdb300affc07000e80e8000a
:101d9c00100078006a0040009e40780001487800ee
:101dac000e80e800100078006b0040008e00e80008
:101dbc0091407800014878000080fa00000006008d
:101dcc000000fa001821ef00801a2600e0088800b5
:101ddc0001098000f0fc2f000080600000098800e1
:101dec002021a90020c1a90021e1a8009780a8000a
:101dfc000080fa00000006000000fa000621ef0047
:101e0c0081088000f0fc2f00008060000040a000e2
:101e1c0080088800f07022006008880010c1a900ba
:101e2c001021a90011e1a80094e0a8000080fa009c
:101e3c00000006000000fa000021ef0021088000dd
:101e4c00f0fc2f00008060000040a00020088800fb
:101e5c00703821001008880004c1a9000421a900d1
:101e6c0005e1a8009460a8000080fa0000000600bc
:101e7c000200fa00000f78001ea1a8001e81a80025
:101e8c001421ef009e007800c00920000088b900e2
:101e9c00000078000000e900d00888001fe1a800cd
:101eac000100370000000000310480000080200099
:101ebc00008060000000e000faff32008760a9009b
:101ecc001fe1a9000080fa00000006000200fa00e1
:101edc00000f78001ea1a9001e81a8001421ef009c
:101eec001e0078006500b900000078000000e900d1
:101efc00d00888001fe1a800010037000000000096
:101f0c003104800000802000008060000000e000b0
:101f1c00faff32008760a9001fe1a9000080fa00d7
:101f2c00000006000e00fa0000f02f0000168800da
:101f3c003400070092000700e0fe0700bdff070019
:101f4c00adff07008000eb0060462800730007001f
:101f5c0011002000604728007000070000000000fe
:101f6c00a116800000042000008060000000e0004a
:101f7c00fbff3a0011002000604e280067000700ac
:101f8c0097fa0700a0fa070010002000000f780055
:101f9c001cff07001e0078000000e0000300320068
:101fac00b1c3b30000cdb3009cfa07001e0078004b
:101fbc000000e000fdff3200014080008025200081
:101fcc00808f50000e003600ec0247006a0247007a
:101fdc00e801470066014700e40047000e80e80076
:101fec0005037800840278000302780082017800ef
:101ffc000101780080007800c0842000ebfc070011
:10200c00ffff37000000fa0060022000303a880021
:10201c00213a8000f0f32f0000806000203a880005
:10202c00213a800000fe2f0000806000203a8800da
:10203c0040a7a9003200200080072000a109200041
:10204c0033742000804978008149780082497800f7
:10205c001200200060042000710520002374200071
:10206c00804978008149780082497800000000009e
:10207c00113a8000000027008080600000002300df
:10208c00808f5000faff3a0000000000113a8000e7
:10209c0000022000008060000000e000fbff320026
:0820ac000080fa0000000600ac
:020000040000fa
:1020b4001808000002000000000000004c080000a6
:1020c4000e000000000000000e0800000a000000de
:1020d400000000001a0800000200000002000000d6
:1020e400010000003c080000100000000200000095
:1020f400303132003334350036373800394142004c
:1021040043444500460000001c0800002000000075
:1021140000000000000800000e00000000000000a5
:0421240000000000b7
:020000040000fa
:102128000600fa000e81e800000978006400470004
:10213800010878000000eb00000f78000c00370061
:102148000e80e800100078001e00400090407800e3
:102158006400470010007800c28120004400dd00c0
:102168001e00400000004100014878001e0fe800f2
:102178001e007800ef0f5000f1ff36000080fa00d3
:10218800000006000000fa006200a8008660a900ae
:0c2198009660a8000080fa00000006001d
:020000040000fa
:0200000401f009
:04000c00fbff0000f6
:020000040000fa
:0200000401f009
:040010007dff000070
:020000040000fa
:0200000401f009
:040014007fff00006a
:00000001FF
